:400000000020002011000000770200007702000038B51C4A1C4B1D4D1A601D4B1A681023134000D12B602B68802B29D1194B1C79E4B2012C14D90021052000F0C7F801211B
:40004000041C052000F0C2F8E4B2C0B2002C03D0041E05D0032403E0441EA0410224241A00230220211C2B6000F0B0F8002807D0012C05D8211C022000F0A8F800F0FAF863
:4000800001F0CEF86588EDAC380003409000002054000340A4000020000000000000000000000000000000000000000000000000000000000000000000000000000000007D
:4000C00000000000000000000000000000000000000000000000000000000000000000003A000000626E0100A8110018000000000000000000000000000000000000000024
:4001000010B5064C2378002B07D1054B002B02D0044800E000BF0123237010BDB0000020000000001C13000008B5084B002B03D00748084900E000BF07480368002B00D14C
:4001400008BD064B002BFBD09847F9E7000000001C130000B4000020A00000200000000018234343F0B5134CE3189D689A8A002D01D10D701CE0104B8600F658C2239B00E1
:40018000F7581F231F403B1C082F00D908239BB20B709B189BB29A4206D2D02189007158A954013292B2F6E7182358432418A282F0BDC046CC000020201300000121024A37
:4001C00013680B431360704744000340013800B50B282FD80902494201F046F806080A0C0E10141216191B20164B13E0164B16E0164B0AE0164B12E0164B0BE0164B09E0E7
:40020000164B02E0164B00E0164BC91814E0164B05E0164BC9180878C0B211E0144BC9180A7848788B7800021B041843CB7810431B0604E001BE00210B784878000218437D
:4002400000BDC046C0FF0100C1FF0100C5FF0100C9FF0100D0FF0100D1FF0100D6FF0100D2FF0100D4FF0100D8FF0100DCFF0100E0FF01000047FEE70122024B60331A7042
:400280007047C046CC000020021CF0B581794379457A0902807A1943D37A000228431B040343181C137BD47D1B0603432B4E907D240204430120B4424FD1957854782D0231
:4002C0002543D47824042C43251C147924062C4343D0002B41D009024C1CFF34204FE518BD423AD81278251C944600220133FF335B189C4204D0207801341218D2B2F8E72E
:400300005242D2B20120944527D12C1C0135FF34FF35227AE379BD421FD8A57867782D023D43B54219D112021A43607A00230A2A0ED080250B4CAD000C1949198A1894422C
:4003400004D0217801345B18DBB2F8E75B42DBB2C01A031C581E8341D8B2F0BD59430000FFFF01000A020000F0B5244A244B85B0D15802920393CB033ED50024261C00254B
:40038000E3B201930F231F486343011C5B1964311B01CA18117AC9B2FF291BD0C3189F6E181CBC4601277F42BC44674664309F66406800280ED1FF30107213486C3344307D
:4003C000025D013AD2B202555A68002A02D05B680198984701350F2DD4D10B4B44331B5D002B00D00126012C01D00124C7E7002E02D1029B039A9E5005B0F0BD001000E0C5
:4004000010D00000CC000020CC020020134B8200D35830B51A68F821520052081A60182250430F4A102510180222027100200D4A0D4C98500122090152425A501959A943B6
:400440001951F42109015A5080315A508021D8661A6809060A431A6030BDC04620130000CC000020880F0000480F0000644B8200F0B5D458002385B002AAD371614B061C9F
:40048000E25801231A4206D05F4962589A436250E8221201A3505D4B0125E7580223FF331F4201D000273D1CFB0641D518237343574AD31800931B790192042B0CD002AB8F
:4004C000D91D301CFFF74CFE0521009B012019719A8A1B699847051C18237343019A8020D31802221A7100229A8281239B00E25840020243E250E158464A1140E1500133B1
:40050000FF33E1580143E150E1580A40E25001224149635893436350F82310211B01E2503E4AA3588B43A350F42330221B01E2507B063AD5E82201211201A3580B43A35095
:4005400018237343324AD3181A79022A2AD1626ED2060ED5002003311971021C1B69984700281FD0F82301221B01E2502A4BE25003E005221A71002D14D0F42330221021F5
:400580001B01E250254A0125A3580B43A350244B1A1C4632925D002A01D1E56605E04A339D5502E002230025E366F4231B01E750002D03D1301CFFF729FF1EE0194BE7588A
:4005C000FB0709D5182300207343114A0421D3181B69021C9847051CF8231B01E750124BE758FB0704D502AB301CD91DFFF7B8FDFC231B01E750002DDCD005B0F0BDC046CB
:40060000201300008C0E0000880E00004C0F0000CC000020FFFFFEFF880F0000480F0000CC0200208C0F0000CC0F000008B50020FFF71CFF08BD0000F7B500F033FE1F4BD9
:400640000190191C1F1C4E31FF31CA7D4E37002A2FD04C7C002C2CD1E62084464D33FF33DE8ABA195278BE5D0092154A9444604606706846151C01260078E73210706835A9
:400680004E74AA790F493243AA71FB220D682A400A601021DA8AFF31223292B28A4201D8DA8200E0DC82054B4E33FF33DA7D013ADA75019800F0FAFDF7BDC046CC0200205F
:4006C000CC03002000020440F0B500253B4BCBB00295039598426CD8802239490190E8310AA8520000F0CAFD364B08AF0893FF23354C7B60354E364B2760336023681B0F00
:400700000A2B02D00F2325681D400295029D002D51D100F0C7FD2F4A04AB04922E4A6832059223602D4B336023681B0F0A2B03D0254B1D680F231D400395039B002B0CD1E9
:4007400027492160274931602168090F0A2903D01D4B19680F230B400293029B002B12D12149019D089108992D04294308911F49276031602168090F0A2903D0124B1968BD
:400780000F230B400293039B002B0FD1184D06A906950792174A216032602268120F0A2A03D0094B1A680F231340039300F07EFD01E00423029302984BB0F0BDFF010000D5
:4007C000CC030020B6D70000080010400400104004000080B6E900004C05002016000080B6E8000015000080B6D8000005000080B6EA00001700008008B500F053FD00210C
:40080000124B0A0164339B181A1C1B7A0832002B08D1FF3313700E4A44321378013BDBB2137002E001310F29EAD1094B44331A78002A03D15B78DBB2002B02D000F036FDC1
:4008400008BD044A04498B50F8E7C046CC000020CC02002010D00000001000E0F8B5051C00F020FD1E4B041C1A1C191C1F1C4E32FF32D07D4D31FF314E378A8A082815D149
:40088000002A02D11132FF328A82191C4D33FF339A8A0025223A93B281224E31CA54CB18201C5D7000F002FD281C17E00026BD54551CADB27E551025223292B2FF35AA42CD
:4008C00001D88A8200E08E824E330130FF33D875FFF7B2FE201C00F0E9FC0120F8BDC046CC020020012170B5144D084213D00022134B4E33FF335A74DB7D934209D1114A39
:400900001268137053702A1C683293798B43937101E0FFF791FE04260B4C68352368B343DBB233432360AB79002B06D0782000F0AFFC2368B343DBB2236070BDCC030020A9
:40094000CC020020CC05002000020440F8B5374E7579341C01283AD10F232F092B40022A15D8012A0BD00025AF425CD1022B04D133792F4AD318E83305E0002B53D12C4B9F
:40098000227968339B182B4A012593604BE0002B14D03179051C002F3BD1022B39D12448023A4018FE3392B2E830591A8A4200D90A1CA11D00F062FC01252AE01E4B023A9D
:4009C000463318701B4B92B21873DA81F4E7002504291ED1822319499B00CD58EA3BFF3B2B400825134AEB1ADBB290681E1CAB4200D92E1CF3B2061C351AEDB29D4205D2F0
:400A000090253778AD004F510136F5E7C3189360D2E7084B197BC9B2002904D18122201D520000F06FFC281CF8BDC046CC050020CC030020CC060020CC020020000005407A
:400A4000F7B50122344C23689343236000239A003249032B01D832498958324801338150242BF4D172B6FF27002503212E4A2F4E17602F4A15602F4A11602F4A13604022EC
:400A80002E4B1A602E4B3C3A1A602E4B7D32FF321A601223336000F005FC07222A4901900B682A4893430B6029490B680078BB4303437F200B6027490B6893430B60264ABC
:400AC00026490B6812788343024013430B604D3800F0DEFB019800F0E9FB214B214A1D60214B1A60214B224A1D60224B1D60224B1A608022214B52001A6011233360204B9A
:400B00001D60204B1A68AA4200D11A600122236813432360F7BDC0460000104077020000000000000000002000000240300010400001024000000440080004400801044008
:400B40000002044008020440080F034065F3FF0F0C0F0340100F03404CF3FF0F180F03400002014000FF00800000014028000340BD010000000101406000002000E100E0FB
:400B80009800002090000020F0B5DE4C8122251CDD4EDE4B87B0E635301D002152009D6000F0B0FB8C22DA48002152004E3000F0A9FB271C082368379C468D333B70C0238A
:400BC0005B017B801323211C0120BB800822002394310870211C7A70BB71FB71BB72FB723B813B857B85A4443930271DF867A0676046E7310B70C7496367C167E167211CB5
:400C00008C3488312B7023600B60C34BC34C1A702368C34A35601340802204251343C14E23603368C04FAB43DBB22B433360782000F02EFB3B68BA4A00922B4201D1402326
:400C400010E02368009A78201340C022134323603368AB43DBB2336000F01AFB3B682B4202D04223AC4A137000272368009AC12113402360A84BAD4C1878AD4B27608022AA
:400C80002366812389009B005202E766E2506250A84AF425A7500122FE2652422D016251A54D36046751083D6251A44D6751083D625145003543C426B6002268A5518025A1
:400CC000AD00AC4608256646FF35A5510136FF36A5519B4D9B4E2A4322600222F2703271894A01250432B26081225200B281964A70703261FE22B270FA3A3570B782E250C5
:400D000062506058914A10406050E1580A40E2504223884AFF33A350884B8D4AE5508D4B1A6062468C4B1A608C4A8D4B91680B40802149040B43936062B68020FFF78EFDD9
:400D4000724D88482F74FFF79FFA00950394724D0196B84202D00423009A13748248FFF793FA002805D00822009B1B7C1343009A13747E4B7E491A68181C92B28A4208D1D0
:400D800000221A60009B01321B7C1343009A1374A7E01B68774A9BB29B18594259410368CAB275499BB25B185C425C41009BE6B21B7C19070FD4002E15D104210B400FD1EA
:400DC000002A1ED16849674CCB69E669B34200D308E2131C10E004242340191E05D080E0002A00D1FEE101230BE0002A00D0E6E1131C002E05D1331C5A4A928A5F498A42CB
:400E000001D1002204E05E498A4202D0FA2292006A802B716B889BB20293002B08D18033584A0360136858499BB20B43136058E00023019A60321370FF2401991A0164312E
:400E40008A18013314720F2BF6D10025304B4F4E44331D704E4A4F4B4F4FF551F2504F4A4F4B1A6000F01EFA019A2B016432D218127AE9B2FF2A00D10C1C019A6432D3181B
:400E80001B7A002B07D1224A0C1C44321378013BDBB2137004E001350F2DE5D1FF2C1ED06B46019A1B8964322401A352019B3D4D1B19141900221D672272029A9A66144A39
:400EC000131C44331978002904D15B78DBB2002B00D176E1443213780133DBB2137000F0E5F90023074994200A1C04930593009B68321B7C107053705A0755D5802204AC8F
:400F0000920059E0CC030020CC050020CC060020CC020020626E0100A4000020080104403FFEFFFF00010440040104400000054088280040480F0000880F0000C80F000081
:400F400000010080CC0000204D090000FFFFFEFF2D0600006400002000E100E000000440FFFFFFF8C0FF0100C0FE0100900000204C420000CFBDFFFFCEBDFFFF5943000096
:400F8000FFFF00000CED00E00400FA05001000E0BF5D000014D0000010D00000690300003C00002079020000904A52681202120C01321402E03492B21B0703D5802304A894
:400FC0009B0007E08A4B5B681B021B0C01331802E0309BB20F1C0E1CE0256837019778369C4688CD88C60D1C803548CC48C5883118C818C1019B7F4D1A8562465A851423EE
:40100000009A538213227C4B6A81EB802B810193009B1B7B002B00D1B5E0784C63791B0900D09AE0009B2079DB890638DBB2062800D9D5E000F018F904D408D42E37400066
:40104000A079FFF74FFC88E0012B00D8C8E0A3790522522B00D07DE0E479002C13D0012C78D1042066490A688243D3B203430B6072B60022634B64491A60644A13689BB25E
:401080000B43136069E00720FFF72CFC201CFFF7BDF906E0A3790522502B5BD1009A4F3B1375022256E0A379012B00D18EE00922022B4FD14E488AE00522032B4AD9A37990
:4010C000462B47D1E379012B2ED1009A667A127D237A002A00D181E036021E43009B5B8AB3427BD8EB88B34202D22B89B34275D1019B9E4201D13E4F04E0FF235B009E4236
:401100000CD13A4F381CFFF7BFF80023984200D1FB69E2223E49013352008B50301CFFF7D3FA00285AD10222E379002B12D1009A617A107D237A072200280BD00902194308
:401140006B898B4206D23248F9320902E83000F095F80322101CFFF781FB8122274B0021181D520000F0CEF80022009B1A73294B191C4A3346310A701978914203D01A7039
:401180000123039AD366009B234C1B7D002B05D0FFF732FB231C002260331A7060342378002B00D134E7FFF727FB8022154B16491A60164A13689BB20B43136028E70B1C9A
:4011C0001FE6164973500723F35183E60748FFF75BF802220028BDD00632BBE70722A3E70522B7E70123024A07E6C046C0FF0100C0FE0100A4000020FF010000CC05002097
:4012000000020440900000200400FA050CED00E0CC030020CC020020CC00002018D0000070B50F490F4B01394A1C15D000221E685C689D68A018AA4203D0B058A0500432B9
:40124000F8E7021CDC68151AA54202D0002520C2F9E710330139E7E700F02EF8FFF794FC010000005413000002B4714649084900095C49008E4402BC7047C046002310B525
:40128000934203D0CC5CC4540133F9E710BD00000230800804D0C0460138FDD1C046C046C0467047EFF3108072B6704780F310887047C046C046C0460E4B70B500251E1CFF
:4012C0000D4CE41AA410A54204D0AB00F35898470135F8E700F02CF8084B00251E1C084CE41AA410A54204D0AB00F35898470135F8E770BD3C1300003C1300003C130000B3
:4013000044130000031C8218934202D019700133FAE7704700140000770000000000000000000540000006400000074000000840F8B5C046F8BC08BC9E467047290100000C
:40134000410A0000F8B5C046F8BC08BC9E4670470101000068130000A000002010000000380600000000000000000000080032000200FF010002FF01000000000000000093
:40138000000000000000000000000000000000000000000000000000000000000000000000000000000000000000000000000000000000000000000000000000000000002D
:4013C00000000000000000000000000000000000000000000000000000000000000000000000000000000000000000000000000000000000000000000000000000000000ED
:401400000020002001190000416500004165000000000000000000000000000000000000000000000000000000000000000000000000000000000000000000000000000006
:40144000000000000000000000000000000000000000000000000000000000000000000000000000000000000000000000000000000000000000000000000000000000006C
:40148000000000000000000000000000000000000000000000000000000000000000000000000000000000000000000000000000000000000000000000000000000000002C
:4014C0000000000000000000000000000000000000000000000000000000000000000000FA020030626E0100A811001800000000000000000000000000000000000000001E
:401500005943040000120004054AB4040100020000000000000000000000000000000000000214001402000014020000000000000000000000000000E803000000000000BE
:40154000020102000000010001040F051F070101010101000000000000000000000000002C9101262CD102002CB104002C4106000000000000000000000000005A900126D9
:401580005AD002005AA004005AB004005A40060000000000000000005A005A005A005A005A0000000000000006140100000000000000000000000000000000000000000076
:4015C0003C000000000000000000000000000000000000000000000000000000000000000000000000000000000000000000000000000000000000000000000000000000AF
:4016000000000000000000000000000000000000140214002802000028020000000000000000000000000000E803000000000000020102000000010001040F051F070101FA
:40164000010101000000000000000000000000002C9101262CD102002CB104002C4106000000000000000000000000005A9001265AD002005AA004005AB004005A40060047
:4016800000000000000000005A005A005A005A005A000000000000000614010000000000000000000000000000000000000000003C00000000000000000000000000000011
:4016C00000000000000000000000000000000000000000000000000000000000000000000000000000000000000000000000000000000000000000000000000000000000EA
:4017000014000000418000FFB4040090000000000000C0F614000000418000FFB4040090000000000000C0F600000000000000000000000000000000000000000000000005
:401740000000000000000000000000000000000000000000000000000000000000000000000000000000000000000000000000000000000000000000000000000000000069
:401780000000000000000000000000000000000000000000000000000000000000000000000000000000000000000000000000000000000000000000000000000000000029
:4017C00000000000000000000000000000000000000000000000000000000000000000000000000000000000000000000000000000000000000000000000000000000000E9
:4018000000000000000000000000000000000000000000000000000000000000000000000000000000000000000000000000000000000000000000000000000000000000A8
:401840000000000000000000000000000000000000000000000000000000000000000000000000000000000000000000000000000000000000000000000000000000000068
:401880000000000000000000000000000000000000000000000000000000000000000000000000000000000000000000000000000000000000000000000000000000000028
:4018C00000000000000000000000000000000000000000000000000000000000000000000000000000000000000000000000000000000000000000000000000000000000E8
:4019000008B5044B83F30888034A044B1A6005F027FAC046002000206588EDAC3800034010B5064C2378002B07D1054B002B02D0044800E000BF0123237010BDE0000020B1
:401940000000000044E5000008B5084B002B03D00748084900E000BF07480368002B00D108BD064B002BFBD09847F9E70000000044E50000E4000020A00000200000000083
:4019800010B57F24090423405C000B1C12021343074A23437424115C012260430A401343044A11180B66029B603010184B6610BD841C002034040020742200234243F0B58A
:4019C0000F4CA218D36130321578AB4216D274224243A21897695169161CB943D94001221836114208D00749D800415A101C002905D09A40726002E00133E6E70020F0BD1F
:401A00003404002068E6000007207047742310B55843094B1818C468C26E7030037804335B00E3189B88117093800323937000239371537010BDC0463404002038B550234E
:401A400003254343194CC9092940E31802290BD0A9421CD0012910D01A1C02214032917001225B18DA871EE0991CCA8F403392002A43CA879A78023214E00224991CCA8F36
:401A8000403392002243CA879A7812190AE002259C1CE28F403392002A43AA401143E1879A7804329A7003F009FB38BD04060020742313B54343041C0020084AD318DA6ECA
:401AC00091889A781B7C0090201CFFF759FF0621021C201C05F0B6FD13BDC04634040020F7B5061C09270024742373431B49CB181A1C30321278A2422ED9DA69E240D207B2
:401B000027D51D22724312190832920055582A78042A1ED10521DA6E68331278AA1851705B681B78002B00D1082700236989EA79301C00933B1CFFF723FF0621021C301C64
:401B400005F080FD05232B70EB69002B01D0301C98470134E4B2C7E70720FEBD34040020F7B57423051C07226B432648C318DA70DB689C4674246C430419261C271C703680
:401B8000317810370B1D5B0063449A88002A05D01D4B9A4223D001313170EBE77B680520002B2ED0111C04230092281CFFF7E8FE0621021C281C05F045FD58236B43134A91
:401BC0006834D3184833DB79002B01D0012303E0281CFFF7F1FE02232370072011E00024111C0623221C0094281CFFF7C9FE0621021C281C05F026FD281C211CFFF706FF29
:401C00000620FEBD3404002001FF00001C05002070B5042914D100220A4B85001A5481235B041943084B094AEB58041CA950161C002B00D098477219201C072105F002FD39
:401C400070BDC046CC050020D0050020FC000020F8B5071C00257422101C7843194E3018031C30331B78AB4227D31D237B435B1908339B00F358002B1CD0134AD25D002AB2
:401C800001D1013200E004221D241F217C43641908341A70A4003259381C137A8B431A390B4313723359DB699847305900212C220CF03FFC0135EDB2CDE700210CF039FCD9
:401CC0000520F8BD34040020841C0020742370B54343184D0C7AEB18DE6EE406E40EB470DC6E683322705E684C89B48000245E6874705E684C79B471002A02D05B688C79EE
:401D00009C7194000C19E368002B10D08A18117E00290CD0742358432818C36E683059704068127E08309200E1680CF0F9FB012070BDC046340400200023F0B5051C1E1C43
:401D4000072085B00393029374236B435649CB181A1C30321278B24200D8A3E0DA690127F2403A4200D19AE01D226A4392190832920054582278042A00D090E0DA6E683346
:401D80001278A21857705A680637117892793A40101C627ABA43024362725A685778002F10D08A1C9200A218506800280AD061180F76596823794A78934203D3920008310E
:401DC0000CF0AEFB74236B43374AD318DB6E171C1B78002B45D11D336B439B1908339B00D358DB69002B01D0281C984774236B43FB18DB6E9B78042B0AD154336B432B4ABF
:401E0000D318012250331A70A318DA770223029374236B43FF18FB6E9B78052B04D10022631CDA7703230293E31CDA7F002A06D0626A03920022DA770C23029303E0029BC7
:401E40000720002B2BD0039B6189E279281C0093029BFFF795FD0621021C281C05F0F2FB1CE0E378032B03D1281C211C022205E06378032B06D1281C211C0022FFF726FF4A
:401E800006200CE01D236B439B1908339B009B580720DB69002B02D0281C984707200136F6B251E705B0F0BD340400201C0500207423F7B54343364C0191E318DA6E30335E
:401EC0001978051C002392883248824203D00133DBB28B42F8D97423022200266B43E25474236B43019AE318002A02D00722DA7007E0D96E4A78B24249D9B21C9200525864
:401F00005A6074231A1C6A43A118C87A002808D1A25C012A05D1281C02F0B8FF002820D103E0FF226B43E3189A7074236B43E318DA6E99789088184A525D002A16D01F1CA8
:401F40001A1C30373F781032002F0FD0114FB8420CD100290AD11962012351689943516004E0019B002B01D1731C837174276F43E7193B7C002B04D0281CFFF799FD0023A7
:401F80003B74019B002B02D10136F6B2A8E7F7BD3404002001FF0000841C002038B5041C742363430948C318DB6E051C1978012902D1201CFFF77CFF74206043281870306C
:401FC000037801330370072038BDC04634040020F0B574254543594A85B05519E96E041C0B78002B00D091E0303588882978544DA8420BD1FF2B00D194E074230121634388
:40200000D1542C236343039300231BE00133DBB28B42ECD9EEE7029B02339B005B598B601B0E1BD1835C012B18D1201C02F02EFF061C742565437D19AB78FF2B15D1029B71
:402040000133DBB2742262433C4802938118CD6E029E6B78071CB342DDD851E07423FF226343FB189A700026E3E72B7C002B04D0201CFFF71DFD00232B74002EDFD0742363
:402080006343FF18BB78F371029B01337371039BF318DD1CEA7F002A15D05B6A002B03D1201CFFF705FD0CE0FA6E201C9188BA7800930C23FFF764FC0621021C201C05F09C
:4020C000C1FA0023EB77742363431C4AD318DA6E997890881B4A125D002AB0D01D1C1A1C30352D781032002DA9D0154DA842A6D10029A4D11E62012351680B4353609EE77E
:40210000CB78072B0ED0201C012107E00021FFF7CFFEEB78072B05D0201C0221FFF776FC062008E0742307205C43044B1C19703423780133237005B0F0BDC046340400203D
:4021400001FF0000841C0020F8B5CFB2051CFB0701D4052044E050224243F0206843214E214B8019A0309A180078383250711C1C7B0601D5090C00E0090A9171281C0421E3
:4021800002F00AFF002805D050236B43E318483304220AE0281C102102F0FEFE0028D8D0502310226B43E31848335A70281C082102F0F2FE002805D050236B43E3184833D7
:4021C00008220BE0281C202102F0E6FE50236B43E31848332022002800D1FF2204209A70F8BDC0462015000004060020F0B57425CB7889B01C068B7845431B0423430C78C4
:4022000049782343002409020B43D1781F040191917802915178127803910492464A52193032127805921A0C06923A0E0792221CE1B28C4605998C4517D2742141433E4E26
:4022400071184969E1400F1C01210F420BD0A20052199619326A069F5689BE4203D1D679079FBE4202D00134E2E70021334C275C002F38D00124DDB2254234D0A543022D84
:4022800006D1582358432E4B18184830C4714FE0042D07D158235843294B181800234830C37145E0062D1ED174264643224CA619351C68352C78012C15D1002901D10024BF
:4022C00036E0D369002BFAD06146231C8B40F1691943F161B1699943B1610226D369167098472E7024E00029E9D0511CCC7F002CE5D011780129E2D18B43DBB20A2B0DD11C
:40230000936A029A1104019A12061143049A1143039A120211439847041C09E0082BCED1002FCCD0013B1370D369002BC7D09847201C09B0F0BDC04634040020841C002010
:402340001C05002073B5041C0D1C0BF077FC061C0020012C29D8854205D0144AF301125D2B43934221D0002301A90B703301DBB2042D19D8281C0BF017FF0317050907008D
:40238000032204E0202202E0402200E0602213434B70074B185D04F071FC002805D0F601024B35431D5500E0002076BDA40600200CE60000502108224143F8B5404D9446A6
:4023C0006B181F1C1A1C4837FE7828329C442C1C5268012E0DD1D81CC677644602201202E077100A5A6A120E120602435A624E5565E0344D2831695C03250026AA436025E5
:402400008907890F0A435A64D2B25E632A4205D01136530630D501233B702DE038331E79002E0AD1012927DDD30602D5BB78FF2B1CD150234343E31816E0112601291BDDEC
:4024400010210A4005D0DB79002B02D1BB78FF2B0CD150234343E318191C3831C9790026012909D1B24207D148335B78502211264243A2183032537150254543651930357A
:402480002E70112E1BD10021061CFFF75BFF6B68002B09D03C222B799343383A1343013A9343013A13432B7150204643A419636B5A1C01D1002301E0E36201232376F8BD84
:4024C0000406002008060020F0B5041C0727002685B0742363434049CB181A1C30321278B24276D9DA69131CF340DB076ED51D2363439B1908339B00CD58287801380628C2
:4025000064D80BF051FE49630404635F1800AB78032B03D1201C291C012206E0EB78201C291C0222032B00D00022FFF7CFFB042306272B704AE0294B1B5D002B45D0012189
:402540007423B140634324488A43C318DA6100222A709A6911439961DB69002B35D1582565431F4A201C55192A1C5032137002214835FFF7E7FEEB79002B07D074236343BB
:40258000154AD318012268331A701EE0201CFFF713FA0028F2D018E0EB1C0393DB7F002B14D06B6A6989EA79201C00930C23FFF7E7F90621021C201C05F044F80023039AF4
:4025C000D37703E0EB69201C984707270136F6B27FE7381C05B0F0BD34040020841C00201C05002038B5042905D100223C4B1A5402F0A4FE71E03B4B1A5C00239A426DD099
:4026000099423CD1364B82001954374BD458374B195C002961D1364D3649555001221A54002809D1344A354B916823300B40C02109010B43936008E0314A324B916834201A
:402640000B40C021C9010B4393600F2101F08AF9231C80212C4AFC339A672C4A4900DA6719659A6D0A439A652168294A0A4029490A432260996F284A0A409A672DE00329A3
:402680002CD80122164BC9B21A548022234B92051954154B8000C458FC34A36F13421CD11F4B022904D0032907D0A16F0B4009E0A16F0B408021090503E0A16F0B4080217C
:4026C00049050B43A367A36F05201A43A26703F0E6FFA26F134B1340A3670123181C38BDCC050020841C002060E60000A8060020111C0000AC06002000020440FFF1FFFFAE
:4027000000030440FF8FFFFFC2F14A40AFF44A01F7FFFF9F08000040FFFFFFBFD8050020FFFFFFE7FFFFFFDF5022111CF8B541437F4BC95C1D1C0139131C062900D9F5E008
:40274000041C081C0BF030FDB104F219CCF2E2006343EA18131C151C2C337649D36004239162012130352B70734B1171D361201C916BFFF7E9FC2870D5E06343EE18371C25
:40278000327A3037D206D20E301CD1B23A7001220830EA54052900D1A9E002D8042905D0C4E010291BD011291FD0BFE0012C03D86249634AA30099500021201CFFF712FFF8
:4027C000502300226343EB18991CCA873E318A701A1C1021303211700122DA62A2E0201C4836FFF7E7FDF37877E0331C4833DB78012B0AD1F21CD37780220133C377736A42
:4028000092001B0E1B061343736250236343EB181A1C30325279082A14D004D8002A1AD0042A05D01AE0102A02D0202A0AD015E0502301226343EB1838331A710022DA7148
:4028400004320CE0502301226343EB1838331A71DA71023203E038331A71DA71022250236343EB18191C30314A704968201C002900D0596CFFF7E2F850236343EB183033D4
:402880005978042902D8201CFFF75CFD502301226343EA54EB181A1C48321178002945D0052130331970002329E01F226343EB18197A0A40062A39D11A1C38321279002A2D
:4028C00003D0201CD96AFFF7B9F8201CFFF772FD50236343EB184833DB78012B23D125E06343EA1830321178081F012803D8201C02F036FB1AE01039012902D80523137020
:4029000011E0002111700122EA540FE06343EB181A1C112130321170191C0122002048310A70D8621A76201C02F04AFBF8BDC046040600200550000029270000E950000055
:40294000D0050020021C081C38B5CB78190683781B040B430178194343780D481B021943845C0B021B0E0D0E0020A5420FD1012B06D0022B0BD189B2101CFFF733FE06E074
:4029800089B2042903D8C9B2101CFFF7DBFC38BD841C0020F0B5D34BD34A8DB0D34D9A4201D8012300E00223D14C2B70201C01F07DF800280AD02B78012B01D1CD4801E09D
:4029C000FF20400001F048F803F070FE0023CA4A0227137001224020C84B6A705A6240329A620132D8621F635A633E3A06219A6300F0B8FFC24BC34A1F60C34BC34E1A6048
:402A000004F0DCF93268C24B1340336004F0DAF9C04BC14A1F60BA4B06371F60BF4B1A6004F0CCF933689B009B08336004F0CAF90022B84BB049B2481F600C23FF26534342
:402A40000132CB189E73202AF7D10023B44E33710C22FF275A438A188D32FF3201339770202BF5D10022E0337271B271036001208027AC4BAC493F069963D96C0143D9642C
:402A8000D96A3943D9625864A849A948A94F0860A949AA480A50CA51A94AAA4F8F50DA6B009392B2009BDF6BBFB2BA42FAD09D4AD76B0522BFB20A5080230A585B029C4663
:402AC0001A42F9D0009BDA6B93B29F4202D962461A43131CDB1B002733810F5062B6381C05F0AAFC2B7808970997012B13D1964801F00CF88023071C5B007381FE23781ED4
:402B00008741FF336B800133AB80EC3BFF3BFF00EB80952015E08D4800F0F8FF071C781E8741894B734A5B68BF001B021B0C99B2914203D814216B807181AA801323962027
:402B4000EB80391C04F0E0FC7B0708D47F4B5D682D022D0C01352902E031ADB202E0802508A9AD0008231F4208D1774B5F683F023F0C01373A02E032BFB202E0802708AA0E
:402B8000BF00E02004F0C8FC281C391C04F0E0FCE31CDA7F231DDB7F1B021343042B01D8002301E0043B9B103373631CDA7FA31CDB7F1B0213430433E3183361E31DDA7FB1
:402BC000231C0833DB7F1B021343042B01D8002301E0043B9B103376631DDA7FA31DDB7F1B0213430433E318F361231C2A331A78231C2B331B781B021343B384231C283361
:402C00001A78231C29331B781B021343E318B362231CFF33DA7C1B7D1B021343042B01D8002301E0043B9B10211CFF3173738B7C4A7C1B0213430433E31873610B7ECA7D20
:402C40001B021343042B01D8002301E0043B9B10211CFF3173768B7D4A7D1B0213430433E31833620B7FCA7E1B021343F3848B7E4A7E1B021343E418F4620024201C07F0E3
:402C8000ABFF334803F0FEFC0D2004F0A9F80A2004F0A6F8201C2F490AF028FE012C01D00124EBE705F0C0FB633404F0ADFE04F019FC00280ED004F0A1FEC30702D5002072
:402CC0000AF046FE04F09AFE830747D501200AF03FFE43E0013C2048E4B204F065F8002CE3D1E8E7FF7F0000E0140000B800002000150000FF01000004010020FC000140ED
:402D000080E100E0B35D00004400002000E400E0FF3FFFFF00E100E0A95D00004C00002004040020000003406588EDAC60000020D53C000018D00000001000E010D0000071
:402D400014D000007FBB0000C0FE0100C0FF0100E4E5000048E5000080BB00001120012100F028FE38213024CD4A112093688B4323439360002100F0F5FDFA22C021920073
:402D8000C84B002001F054F8C74B08AA0893C74B04210993C64B01200A93C64B0B930AF083FE0C2101200AF09FFE002101200A1C0B1C0BF00DF96422BF4B201C1A7104F0B8
:402DC0000FF8BE4BBE4C30331D1CBE4B0193BE4B0593BE4B0493BE4B03930023069302936B461B7A181C009308F0E2FE00980AF023FEB84F069B1837FF183E1C4C36337822
:402E0000002B00D1BBE100980AF038FEB24B029A9B5C002B04D13378002B00D1AFE111E0037C002B03D079300378002B03D03B1C01224D331A703B1C4D331B78002B00D1F1
:402E40009DE1E8E70098282100F006FD002800D095E12378581E0793062800D98FE10BF0ADF907001400490043018801B8007401009801F0C5FE0023029A6370964B9A5CED
:402E80000223002A00D1A2E007E16378002B02D0012B0DD02BE0914A0599A284019A137001220A70049A1370039A137006221FE0029A894B9B5C0522002B19D0019B19780B
:402EC00000290CD14823029843437D48C3182033DB7A5B070CD5231C453319705970236B0322A360A36A63600023637000E00522227044E16678012E11D0002E02D0022E55
:402F00005CD064E0019B059A1E70744BA3840333FF331370049B1E70039B1E7033E06E4B029A9A5C0523002A00D1B6E0019A1778A26A002F2CD1013200D1AEE0211C00984E
:402F4000103103F0FFFA00281FD000980AF096FD79300378002B36D000980AF08FFDC0300378002B2FD0231C45331F705F70019B059A1E70594BA3840333FF331370049BAD
:402F80001F70039B1F70062387E0019B18700AE0531C18D0211C0098183103F0D3FA002811D1019B1E704D4B059AA3840333FF331370049B1870039B1870E4E7019B1A78BF
:402FC0000523012A69D100236370043365E0052363E0019BA68C19782B1C34331970039B36041A782B1C013238331A70002903D13B1C4E331A7804E000980AF03FFD7B3034
:403000000278032313405B031E43059B1A781F23111C9E431940049B0E43197807230B402F491B020E401E4380231B021E432B1C6E644033052A03D0062A03D0042A03D115
:403040002D2202E0002200E019221A70039B1B78002B07D1231C44331B785437092B0BD100230AE09A000023E018806AE918043388649342F8D1EDE701232A1C3B70009851
:40308000184B0C2134320AF0A3FF431E9841079B4042034007936B461B7F23706FE0C04600010440A53F00002C9101262CD102002CB104002C4106006407002004040020FD
:4030C000BC060020DC060020DE060020E2060020DD06002004050020841C002000FFFFFFFFF8FFFFA9510000029AA34B9B5C5A1E93412A1CDBB230321370019AEA66228AEC
:40310000002B18D00523002A1DD02B1C002270331A70231DEB6001236B702B1C68331A70F023029A4F375343944AC233D35C5A1E93413B7006E00523002A04D12B1C023265
:4031400068331A700723237010E02B1C68331B7862789B009B188A4A9B00D3189B6D009898472070062801D0072808D10023637005E0009801F05CFD012351373B7004F068
:4031800043FC029B483401330293069B743558330693019B48330193059B48330593049B48330493039B48330393069BB02B00D016E603F003FE734F00243D1C00904C3536
:4031C00058236343704AE0B2D31864331B78002B35D0282100F040FB002800D08BE0482363436A4AD35C072B00D084E02B1C4C331B78012B23D0002B00D17EE0644B4833F0
:403200001B5DDBB2002B76D1297D0130DAB28A4213D22A68DA40D2070DD59A00AA1852681678012E06D10332D67F724272415242104000E000200133E8E700285BD074351E
:40324000012C01D00124BBE7514EF36C351C002B10D0331C5433197823208C428941494200F0A8FB4B4B1B78002B03D02320002100F078FB336D002B11D02B1C5433597896
:4032800001238B4289413420494200F093FB414B5B78002B03D03420002100F063FB05F08DF9002803D00AF08DFB002802D10124002526E0BB79002B09D0374B56351B6CC7
:4032C0002A889BB2934202D0322003F0E8F905F099F9002813D003F071FD04212F4B304A1B889BB213602F4A13680B43136030BF03F068FD03E0002402E01C1CD8E7012492
:40330000251C009803F05EFD002D01D00AF08EFB0025002C00D154E51D4BAA00191C4C315158002924D0204954338C58194A5B5D525DDBB2002A1BD0FC341C4A012B01D924
:403340001B4B00E01B4BA3670520E26703F0A7F9A26F194B1340A367002D05D123200F2100F000FB0125D7E734200F2100F0FAFA012DF7D125E5C046841C0020001500003C
:4033800048E500000404002004050020BC06002084050020A80600200000034052F2FF0F0400034010ED00E060E60000AFF44A01C2F14A41C2F14A40FFFFFFBF0122014BA3
:4033C0001A707047CC0900200C235943C20143029B1AC9180C4B0D4A5918FF238B72135C013BDBB213540A4A1378013BDBB213701378002B07D1074B1B78002B03D1802212
:40340000054B52001A60704708010020080400200A040020DC05002080E100E05823F0B54343A94E85B0F318041C181C01920022403042710D89A54A2A4080252D02AA423C
:4034400000D036E101228D68027180203E3240422A400243181C28309D6202709C4A125D002A00D099E04B78012B00D011E1087AC006C00E0138052800D90AE10AF09EFE4D
:4034800006002C004E00810081000301914B49891A5DFF231B02994200D0FAE0002A00D1F7E058206043331840331A718A4BA100CF5893009C460021834D0B187A585B19FB
:4034C00004319A626145F7D158236343EB18DA8D920A9202DA854CE0804B49891A5DFF231B02994200D0D4E0002A00D1D1E058206043331840331A71794BA100CF58930006
:403500009C460021704D0B187A585B1904319A626145F7D158236343EB182AE0714B4889A2007149D2586300C95C042900D8B0E0D588137885420BD158216143043B7018F6
:403540009B1040300371DBB201339B00002005E0C91AC9B2D2180029EAD19AE00430984204D04518175875196F62F7E758236343F3183F22283319780A4040210A431A70CF
:4035800087E0201C03F0B4FF002800D181E058236343F318403302227AE00D7A1F22281C104006286FD14833187901286BD1ED06ED0E032D67DD742363434C4FFB181D1C8A
:4035C000303528701D6A488903976F89002D45D0874243D14B7A5B0702936B799C46029B5B0F9C453AD16B1CDB7F002B4BD00B7A1340181C2B7A934303432B724B78013BC0
:403600002B764A78012A0AD92B7901339A4206D8374B0C31D2189200E8680AF081FF74276743039B201CDF1901233A6A1370EB6998473B6A1B78052B25D0582060432A7ECD
:403640003318013240331A712A7E002A1BD02C3030189200E9680AF063FF14E0874212D16B1CDB7F002B0ED00A89224B1340224A934208D11F222B7A201C9343183A134397
:403680002B72EB699847582301226343F31840335A7158236343F318191C48339A7903236020283113405A014B78834313434B7001E0022343715821614328317118201C82
:4036C000019B984705B0F0BD1C050020C080FFFF841C002010040020140400201C040020200400202C0400202804002034040020FFFFFF3F1F0700000507000038B5041C4F
:403700000D1C0AF0BBF9C37903209B069B0F03D00930022B00D0083858216143044B5A1805320831D077C918201CA84738BDC0461C05002070B50D1C041C0AF09FF9031CC3
:4037400067331978012901D1837A00E0037B021C6A3216780422002E11D10678022E0ED15BB2002B01DA002909D10C21C37903220B409B0803D00A1C022B00D0083A582179
:403780006143044B581805300831C277C918201CA84770BD1C05002070B5041C0D1C0AF06DF9582363430D49CB1850331E780A1C0123002E07D1C1790233194003D009331D
:4037C000022900D0083B58216143501805300831C3775118201CA84770BDC0461C050020F0235843014B2030C0187047001500000048704700150000002310B59200934205
:4038000003D0CC58C4500433F9E710BDF7B5051C0F1C019203F0D2FA0024061C0C236343EA016802821A9B180A4AE1B2D31808339B78DBB2BB4205D3019A934202D8281C80
:40384000FFF7C2FD0134202CE8D1301C03F0BAFAF7BDC0460801002070B5061C0020FF2913D0031C0C225A43101C7502F201AC1A021906488218083292788A4204D00133B0
:40388000202BEFD1002000E0012070BD0801002008B5914203D2FF2A01D0FFF7B7FF08BDF8B5041C0D1C03F089FA061CFF2D14D000200C234343E2016702BA1A9B18094A1D
:4038C000C1B2D31808339B78AB4203D1201CFFF77BFD02E001302028EBD1301C03F072FAF8BDC046080100200D4B1A780D4B5B78012A03D15B070BD40B4B02E01B070AD47E
:403900000A4B58680002000C00020130FF3004E0A020400101E080204002C0307047C046B8000020DC050020C0FF0100C0FE01009123024A9B00D3580360704700F0FF0F77
:40394000014B18787047C046B80000208021044B8000C258490493680B4393607047C0464CE600000309074A9B009A580F2318408000834010B5146881409C43231C0B43AF
:40398000136010BDF8E500000F23094A0340000980008258012010B5032498405B009C4099401061D068A0430143D16010BDC0464CE600000F2203099B001040084A002921
:4039C00007D0D15801228240101C0B681843086005E0D158012282400B6893430B6070474CE60000802210B5C0B0041C0021684652000AF09EFD0723022C09D8FE206B463B
:403A0000400069461C7002F073FE031E00D00C2358B240B010BD000008B50C4A031C90780E22002810D0073A00290DD0084A10880722984208D20748834205D8081CF93201
:403A400019020AF06DFD002250B208BDDC050020BE000020FF010000802210B5041CC0B05200684600210AF064FD201C694602F03FFE431E984105234042184040B010BD79
:403A8000034B9B781840431E9841C0B27047C046DC050020044A002803D001238B40937000E090707047C046DC05002030B5154AC47983790621904222D84278057812024F
:403AC0002A43114DAA421BD12102041C19430A34027A0A39231E0DD00023041C994209D0251A8D4204D2A57A01345B19DBB2F7E75B42DBB2D31A5A1E934106215B421940DB
:403B000048B230BDFFFF010059430000021CF8B581794379467A0902807A1943D37A000230431B040343181C137B09021B06034321484C1C0078FF34012804D11F4D0530EB
:403B4000AC4237D90AE0022808D11D48456806202D022D0C01352D02AC422BD290785778D578000238432D04061C281C157930432D0605430620002D1CD0002B1AD0114D04
:403B8000E618AE4216D81578201C00220133FF335B18984204D0047801301219D2B2F8E75242D2B20620954204D180239B00C818FFF77CFF40B2F8BDB8000020FFFF000086
:403BC000C0FE0100FFFF010038B5224B9A780E23002A3DD0073B00293AD01F4B1A880723824235D81D4A1288824203D21C4A128882422DD11B4B0D1C041E9C420BD11A4B8B
:403C00001B78022B05D01948FFF780FF0023984211D1164B0EE0FF235B0098420FD1124B1B78012B05D01248FFF770FF0023984201D10F4BDB692A1C0133DC321360201C60
:403C4000291C02F055FD421E904105234042034058B238BDDC0500200E040020BA000020BC000020FF010000B8000020C0FE0100C0FF010008B50A4B1A78002382420CD0F7
:403C8000012804D00723022807D1064800E00648FFF73CFF031E00D0062358B208BDC046B8000020C0FE0100C0FF010070B5074D074A2B6C11889BB2041C161C8B4202D0B0
:403CC000642002F0ECFC2C64348070BD00000340DA050020F7B501224E4B4F4C62641A7000934C4BE76B9988BAB289B23F043F0C914202D3802040023F1800257F1ABFB27E
:403D00009A800026EBB201930C237343E9016802411A424A5B18D11808318978C9B2FF2929D098588446781D844502D99858C01B00E000209850394BEA019C460C237343E4
:403D4000181C6B029A1A831862469A58002A12D1FF20634498723248425D013AD2B2425530480278013AD2B202705A68002A02D05B68019898470136202EC5D1012D01D037
:403D80000125BEE7274D2B78DBB2002B01D1264828E00021244800220C2353439C46CF014B02DF1B1D4E6744F31908339B78FF2B03D0BB59834200D2B8590132202AEBD152
:403DC000012901D00121E6E7124B9B88E26B9BB291B21204120C8B4202D3802149025218D31A9BB20533984200D27AE7009B80B2D8809B88C01880B2FFF758FF0023009A75
:403E000013702B78002B03D18022084B52001A60F7BDC046DC0500200000034008010020080400200A040020C0FF000080E100E0F0B585B0041C0E1C009202930020FF2988
:403E400000D19CE0824200D199E002F0B7FFFF231F22039001930C210F1C5743D3B29C46E501630247485D1B7D194519AF7AFF2F01D16346019351436302E5015D1B4D19F3
:403E80004019837AB3420ED16A466346137115793D4A135D013BDBB213553C4A1378013BDBB2137005E0013AD5D2019D0027FF2D61D0E3010C220193019863021B1A684678
:403EC0006A433049D7180088CB1918810298009A58609E722E4B081C1B8853437B502D4B1B78002B3CD12C4B284EDB6B36789AB2002E23D027491B0489881B0C89B29142A5
:403F000002D3802252029B180C2255435B1A01996202521AAD1842599BB29B181D4A43514159D38899421BD243599BB2D3809388D088C01880B2FFF7B9FE11E0154B9A8075
:403F40007858164B984200D9181C124B80B2D880801880B2FFF7AAFE8022114B52001A600127094A135D0133DBB21355074A13780133DBB21370039802F024FF381C05B023
:403F8000F0BDC04608010020080400200A0400200C040020DC05002000000340C0FF000000E100E0012108B5074B11205B685B089943FFF7FFFCFA220020C0219200034B85
:403FC000FFF736FF08BDC04600010440A53F000070470000002803D1054ADF23116804E0012804D1F723034A11680B40136070470002044000040440002803D106492030C5
:404000000A6804E0012806D1044907300A688243D3B203430B60704700020440000404407047000010B5041E012C06D1022007490A688243D3B203430B60201C16210022DE
:4040400000F038FE201C09F0A1FC10BD0004044008B5FFF7E7FF08BD08B558234343084AD31848331988F0234343064A9B1888331B785B0702D5044A00F0A0FD08BDC046F5
:404080001C050020201500001941000008B5F0234343054A9B1888331B785B0702D5034A00F08CFD08BDC046201500007947000058234343134A10B5D31800225033041EF6
:4040C0009A70012C04D1FB230F4A106803401360002902D0201CFFF77DFF201C02F092FAF0236343094A9B1888331B789B0708D5074B0021185DFFF747FC0022054BA400E9
:40410000E25010BD1C050020000404402015000048E60000B406002010B5041C0121FFF7C7FF201C1621002200F0C4FD201C09F02DFC10BD10B5041C0121FFF7B9FF201C95
:4041400009F024FC201C1721002200F0B3FD10BD5823434370B5294D041CEB18483319805B888B4203D8102901D0FFF775FF02F025FE012C3ED12B1C8222A0331B8852004D
:40418000934237D004D8B42B14D0F02B25D131E0BE22520093422DD0C826194A19497600B3420ED0643EB34217D11368A343DBB213600BE0124A1368A343DBB21C4314607A
:4041C00013E01368A343DBB21C43146002240A68A243D3B223430B600CE06423084AA0352B8011689A330B401360FD23054A11680B40136002F0E6FD70BDC0461C05002000
:40420000000104400003044038B5051C02F0D6FD041C281C09F032FC90300378002B06D0012D04D1FD23044A11680B401360201C02F0C8FD38BDC0460004044038B5041C6D
:40424000151C09F0CDFC58236343074A0321D3180533002800D00421D9775821614308315118201CA84738BD1C050020F0B591B0009001910F9209F001FC019B05905B7862
:404280000D93019B1B899B059B0D0A93031C3033FF331B78DB06DB0F0E930023069309930493059B049A7E331B78934200D885E1002307936B460D9A1B7F0B93934200D30D
:4042C00078E1009809F0DAFB049E4A36B6008619F779BB090293049B80335B001D5A079BAD050233AF0D9D00019B5A19D3789B09012B73D0022B00D1CDE0002B00D056E16F
:40430000019B1421EB581C03A40D201C1330039309F05EFF231A0393029B0019012B2BD0002B02D0022B07D041E173681B039B0D9C4200D03BE10CE07368039A1B039B0DC6
:404340009A4200D233E1F3889B049B0D984200D92DE1019AB388AA5A9B0592059B0D920D391E994200D2191C8A4200D21FE1009ABF4992005350FCE07368039A1B039B0DD8
:404380009A4200D213E1F3889B049B0D984200D90DE1FA24B08864008005800D60430138111C801809F014FF7C43039B061C581E191C001909F00CFF019B071CEB5A021C16
:4043C0009B059B0DB04200D2321C934200D2EEE0009BA74A9B009E50039CCAE0019B5488EB58029AA40403931B03A40D9B0D012A32D0022A00D0DAE072681203920D93423E
:4044000000D2D4E0F3889B049B0D9C4200D9CEE0FA21B08849008005800D6043F430FF3009F0D6FE061C381CFA216043F430FF30490009F0CDFE019B071CEB5A021C9B0508
:404440009B0DB04200D2321C934200D2AFE0009B874A9B009E50E8E072681203920D934200D2A4E0F3889B049B0D9C4200D99EE0019AB388AA5A9B0592059B0D920D391E30
:40448000994200D2191C8A4200D290E0009A784992005350C9E053889B049B0D0893019BEB581803830D0393029B012B2CD0022B00D07CE07368039A1B039B0D9A4276D375
:4044C000F388089A9B049B0D9A4270D8019BB488EB5AA4059B05A40D9B0D3A1EA24200D2221C934263D3FA210398009B6043604D9E00F430AB19FF304900029309F068FE8B
:40450000029B7451986099E07368039A1B039B0D9A424CD3F388089A9B049B0D9A4246D8FA20B38840009B059B0D0293039B03995C1E029B5843201809F04AFEFA235B00C2
:404540007B43061C0399181909F042FE019B071CEB5A021C9B059B0DB04200D2321C934225D3009A424B9200029899188860D65064E0009A3E4B9200D0589D182C61444310
:40458000201CFA21F430FF30490009F021FEAF61A860009B364A9B00D3189C68099A944205D30E9A002A51D01B69642B4ED1079B01337EE6049B0133DBB271E6069B002B00
:4045C00025D1FA21059B2A4EFC331A6B1C8E1003009AA4059500800D7719A40D38616043F430AC51FF30490009F0F2FD0A9BB860A34200D2AB510121059B7519FE335B88EA
:404600000098AB610A1C002300F096FA0C905821009A184B51430C985A1808319060C91800980F9B984711B0F0BD009B104A990053188A581C619F619A60AAE7009B0C4AE4
:404640009B00D318089A9F611A61A2E7049B059A80330B995B009B5A0131DB0BC9B20098002200F069FA01230C90099406939EE7E40500201C050020F7B5041C0E1C02F0DC
:404680009DFB5825232201901E21201CFFF7BEF8201C1021FFF75CFD10226543134F7B1948335A80002E19D0201C09F0E7F990300378002B12D0201CFFF79EFC9622EE51D0
:4046C0000B4D201C2B1C21219200FFF7B1FB201C222103222B1CFFF7ABFB03E0201C0121FFF7E6FC019802F06DFBF7BD1C050020B147000070B5041C0D1C02F05FFB061C0D
:40470000201C01F07FFF012C06D1022017490A688243D3B203430B60201CFFF75BFC201C25212622FFF772F8002D1BD0201C09F0A5F990300378002B14D0201CFFF75CFC69
:40474000582363430A4A2521D3185D60094DFA222B1C201CFFF76CFB201C262101222B1CFFF766FB301C02F02DFB70BD000404401C050020E948000010B5041C09F07EF99E
:404780006A300378201C002B02D1FFF74BFC0CE0002108F0F7FD0121201C08F0F3FD201C24213222014BFFF743FB10BD514000001E3970B5052900D990E0041C081C09F04B
:4047C000F3FC0310415962842022201C1F21FFF71DF858236343424AD318102248335A804CE0582262433E4B3E4D9A18111C503149791E1C002908D158236343F3181A1C30
:4048000050325279002A11D018E0483211881422201C524200F080FC0028EDD0201C1E21FFF73EF8201C20215A224AE048331988201C0A2200F070FC0028EFD0201C1F21B1
:4048400001223EE0201CFFF7C5FB58231A1C6243234D1E1CAA1850325279002A02D1201CFFF7FAFB331C6343EA1848321188EB58518031E0201C2221FFF712F8201C0121C6
:40488000FFF716FC2AE06421201C0A2200F044FC011E02D1201CFFF70BFC1422201C1021524200F039FC0F4D002807D1201C2121FEF7F6FF201C2321022202E0201C222179
:4048C00003222B1CFFF7B4FA08E0201CFFF782FB58236343024A9B58201C984770BDC0461C050020B147000038B5041C0D1E252D02D0262907D021E02621FEF7D1FF201C5F
:40490000FFF768FB1AE06421002200F005FC00280ED1201C2521FEF7C3FF201CFFF75AFB58236343064A201CD3185B68984705E0201C291C0122034BFFF77AFA38BDC0464F
:404940001C050020E9480000F7B50E1C041C09F095F8051C02F032FA1E2101902322201CFEF754FF2B1C90331B78002B52D0F02302216343294A9B1888331B780B4209D011
:4049800027487635274A2B78A3009850264B185DFEF7FAFF582301216343244AD31850339970171C8C420FD1214D49182A680A208A43D3B20B432B6001F071FE04212A6894
:4049C0008A43D3B20B432B60201CFFF703FB002E20D058236343FB181A1C012150325171483359881B88994204D90023201C5371FFF702FB582363430E4DFE501E21FA227C
:404A00002B1C201CFFF714FA201C1F2101222B1CFFF70EFA019802F0D5F9F7BD2015000035410000B406002048E600001C05002000040440B1470000074B8000C258D023EB
:404A40005B00002902D1D158022001E00420D1588143D1507047C04660E6000048234343094A0021D3181A1C4032117102225A7072325043054A0333101840300279D2066F
:404A8000D20EDA777047C046BC06002034040020502358430D4B30B51818021C002338321371D371011C041C93710122851C4363303143644034C36202764830EB87A3701F
:404AC0000B7083704370037030BDC0460406002010B5041C08F0D2FFD0227030074B0078A400E15852000123002802D18858D84001E088588008184010BDC04660E60000FB
:404B00000C4B8200D258D02310B55B00041C002902D1D158022001E00420D1580143D150201C012109F03CFB201C022109F038FB10BDC04660E60000F8B50F1C151C1E1CF0
:404B4000041C08F09BFF012342798079291C1A4018404006120602430720194089060A430740101C00223F073843954200D1321C13400E4ADB06104018430D4BA400E258FC
:404B80000C4B920518400C4B920D9502E35828439B05800A9B0D80021843040104D49A4202DD800A80021043F8BDC046FFFFFFF7E4050020FF03F0FFFC050020F7B5041C40
:404BC0000F1C161C02F0FAF8F02363430B4A051C9B1889331B783A1C5BB2201C002100F081FB00210122031C00920196201C0A1C00F07EFD281C02F0E5F8F7BD20150000C2
:404C000038B548244443094B00211C19231C051C40331971597199711C22201D09F089FC281C08F02BFFBC30E06038BDBC060020F8B558254543194B00265D192F1C5037D3
:404C40007E7048352B79B34227D0041CFFF7D8FF74236343124A2E71D31868331B78114A1B01D318DB686E713E70201C9847201C08F004FF72300378B34203D0201C022133
:404C8000FDF760FB201C00F059FB0023064A1355064A1355064AA400A350F8BD1C05002034040020A0E50000CC050020D8050020D0050020F0B587B00F1C041C019208F043
:404CC000DDFE031C781E192800D9C1E009F06CFA5A445A6B6BC0C0C05A4DC0C077C0C0904FC0C04F99C0C0C05A0D00265C4B5D495D4A1E6011605D495D4A11605D4A083941
:404D000016601A68FF390A431A60012C28D8032305AD6B70584B291C1B5D2E70181C029301F0ACFFB0421BD0544B01331B19DE77514BDE1C0F330393731E1B7802982B7039
:404D40003378291C6B7001F099FF002808D0039B02369E42F0D103E0201C0221FDF7F2FA58236343464AD31825E0012600E0002676331B780125002B06D03D1C143D6B42BE
:404D80005D4101E000252E1C201CFFF751FF002E02D0201C022103E0002D59D1201C291CFDF7D0FA54E058236343354A0121D3181A1C48325171002250335A7048E0019B25
:404DC0001B78032B44D1201CFFF732FF582363432B4AD318181C48300179002938D1482201256243274E50339555057159702FE058236343224AD31850331B79002B2CD185
:404E000026E0582262431E4B00209A18111C483188710199023009798143181C012917D1194B1B5D002B03D050325378002B0FD158236343C3181D1C48352879002807D196
:404E40004822012162430F4E5033915529715870201C391C019A02F0F5FB07B0F0BDC0460000084077080080600008400701008000020840040208400CE6000084060020B6
:404E80001C050020BC060020841C00205023F0B54343324F85B0FB180C1C061C0021181C2C22009309F045FB0023E568A370AB680297002B18D01A68002A15D01B785B0727
:404EC0000DD0301C08F0DAFD7A300378042B0BD1F022AB68D2001B681340934204D00A2323740023009336E0301CFFF7D1FD502373430193019A029B00279D182B1C083321
:404F000003934033DF70301CA168FDF71DF92B1C30331870052803D10B23009723741AE02A1C01213832E81C53799279C17703981A40C1776B6A301C1B0E1B0613436B6291
:404F4000A368029AAB63072301992374E370053B5354FDF7E9FB009805B0F0BD0406002038B5041C0025FFF793FD084B201C1D5500F0E4F9012C02D8054AA3009D5050230C
:404F800007225C43034BE25438BDC046CC050020D00500200406002050235843074B1818383043790B4205D080790140481E8141C8B202E048424841C0B2704704060020A0
:404FC0005023434330B50E4CE3181A1C30321278002A14D01F21002511409D601972FF21043A49425981012A02D901221A7600E01D76502358434D3B22185370235430BD2A
:4050000004060020F0B50F0E090285B0090A012F0DD150234343284EF3184833012902D1D9700D1C45E000223D1CDA7041E00025022F3ED1502444431F4B1C19231C4833FB
:40504000DE78012E35D10190062908D11122183B1A705D60E5622676FFF7B2FF29E0062927D8331C8B4002936B461B7A0198191C0393FFF791FF051E1BD0231C00223033CD
:4050800059790298151C814213D0112119706946097B5A60597104210F431F715B68591C01D1227601E0E36226760198FFF788FF0025281C05B0F0BD0406002008B5502395
:4050C0004343084AD3181A1C40329278002A07D00233D98F023A114103231940FDF782FA08BDC0460406002089B208B504290FD150234343074AD3185A1CD27F002A07D029
:4051000040339A78002A03D0023A9A70FFF7D6FF08BDC04604060020F7B5151C041C0E1C002101F02DFD321C00212B1C201C00F0D9F81C4BA400E458061C01F03FFE802397
:40514000C0259B006D001E4367596651012601900A2001F0A4FA63590A20DB0B67519E4301F09DFA221C8023FC325B001362116B194211D0002F0FDB936961599B019B0F60
:40518000090407D5022B07D18021936A49000B43936201E0012BF7D0019801F013FE301CFEBDC04660E60000F8B5041C4B4D042920D1117A8B09012B02D0032B0BD03AE052
:4051C000742343434648C906C31840331B79DB068B4230D140E048224243A91840310B790133DBB20B71092B25D806232821AB54322228E048234343EE18F21CD27F062A1E
:405200000FD103290AD1EF5C002F66D12531FEF747FB01237370403637713FE000293DD05BE04A1E012A12D8403632790132D2B23271092A03D9201CFFF710FC2EE0062219
:405240002821EA545E320023FEF7F2FD45E0002943D10622EA5440E0482363435189EB1899841178581CC177517ADE1D4907490FF177117A0333C906C90ED977537801305F
:40528000013BC37753780021012B17D8482301226343EB185A70002240331A7148235C432B190333DB7F012B03D0022B03D1032302E0022300E007232B550EE053788B4235
:4052C000E4D9CB1C9B009858122363435B180A339B000131E850C9B2F0E7F8BDBC0600203404002070B5061C3220504343430C1C051C6421181C08F0FBFF9A2373431C1960
:4053000088340D4B281864001C19C343DB170B21184008F0EDFFA48880B2A4B20002211C08F056FF032803D9FE2802D9FE2000E00420C0B270BDC0466407002070B5204BF6
:40534000051C1A5C1E1C002A05D102331B5C0C24002B32D008E0002802D12320291C01E034200021FEF726FB164BAA00D158C0200B1C4000FC3318659C6D1348B2182040C7
:4053800098658020C00018621C6B104820400024186308680E4B03400B607455023654607455A54205D12320291CFEF7DBFA2C1C03E03420211CFEF7D5FA60B270BDC0466F
:4053C000A806002060E600007FFEFFFFFFFBFFFFFFFFFF9F074B8000C258C62304205B00002902D1D158814301E0D1580143D1507047C04660E600000B4B8000C258C62302
:405400005B00D058002906D1084901408020D150D158400305E0064901408020D150D15880030143D150704760E60000FFFFBFFFFFFF7FFFC622084B8000C05852008358AE
:40544000002902D1A021C90301E0A02109040B4302490B408350704760E60000FFFFFFBF064B8000C258C6235B00D058002901D1034900E003490140D150704760E600005B
:40548000FFFFFFFEFFFFFFFD104B800070B5C458FF230C251B02E058A843E050101E022804D1E25806300243E2500538C6256D006659074B820633401A438223002900D068
:4054C0008423DB051A43625170BDC04660E60000FFFFFFF30C4B10B58200D45808F0B8FB031C67331B78002B0DD1FF230C211B02E25868308A43E2500278032A03D1E258F0
:4055000004390A43E25010BD60E6000000207047C622054B8000C1580A2052008B5803438B5000207047C04660E60000C6220F4B8000C358520098580D490140E0209950B2
:4055400099580003014399501A1CFC3290690949014091619069084901409161CE21142049005A5882435A500020704760E60000FFFFF1DFFFFFF3FFFFFF7FFB074B8000F9
:40558000C35801201A1CA4321168054A114203D1FC33DB695B0A18407047C04660E60000070010009A235B005843024BC01804307047C046640700200B4B8000C35810B560
:4055C0001A1C0A4CFC32D461D06A89002043D0620748F4330958116080211A68C9020A4300201A6010BDC04660E60000000104001CE600000A4B8200D2589A235B00584373
:40560000084B1B1800202933FF331871131CFC33D96A054A0A40DA62044ADA617047C04660E6000064070020771FAEFF88E05100064B8000C358064AF433196800200A40D6
:405640001A601968034A0A401A60704760E60000FFFFFEFFFFFFEFFF124B8000C3581A1CFC32002908D1E43318680F4901401960D16A0E4B0B400FE001290ED1E4331868C5
:40568000094901408020C00101431960D16A074B0B40802189000B43D362054B0020D3617047C04660E60000FF00F8FFFFF5FDEF000A02100A4B8200D2589A235B00584367
:4056C000084B09491B1800202933FF335871131C064AFC33DA61DA6A0A43DA627047C04660E6000064070020000A02107F0A2210F0B585B002930AAB1D78484B01928200DF
:40570000D458071C0E1C01F059FB4D237B439B19434A46339B00D3180B9A03905A60002A49D0002E22D1261CFC36B3693D4A29061A400B1C1343B3618023C022C0270299AF
:405740009B001943019BD2025B0413400B437F00E3510A2000F0A3FF80235B003362326B1A433263E25912044CD445E0012E3ED1261CFC36B3692C4AE9061A400B1C134391
:40578000C022B361019B8027D2025B041340C4220299BF0039430B435200A3500A2000F07EFF3762336B3B433363C4235B00E3581B0430D429E0002E0BD1C0231B4A5B00A3
:4057C000E250FC34226B1A4B1340236380235B000CE0012E0BD1C423144A5B00E250FC34226B144B1340236380239B002362039801F0E8FA05B0F0BD012DF8D1B26A1343C4
:40580000B362F4E7022DF9D0F1E7012DEFD1B36A1F43B762EBE7022DF9D0E8E760E6000064070020FFFFFFFCFFFFFFE700020080FFFEFFFFFFFDFFFFF7B5041C0191161CD4
:4058400008F006FA071C364B0090A4006737E4583B780225012B00D0351C8822019B52000021012B00D1111CC6235B00E05810400022884209D0E25894466046294A024074
:40588000E250E25811430122E1503B782649012B08D10098943003789B00CE18737F5902337F06E08E19331C29331B782836590233785B010B43C621EE2049006658000180
:4058C0003040984207D06058184A0240625062581343635001E0002A02D00A2000F0DFFEC023A4342268DB0213408022D202934205D13D78013D6A426A410225AD1A3A7862
:40590000012A04D15A1E93415B421D4006E0002A04D1C022D202934200D10325281CFEBD60E60000EFFEFFFF1CE600001FF1FFFFF0B5061C85B008F08BF92D4BB200D358AB
:40594000021C673217780B32041C03AD1278012F25D1012A16D1A4331A6806231A40031C002A03D09A331B882B8006E06F331F78301C391CFFF760FFE8550222703423784A
:40598000EA5431E00021301C0A1CFFF755FF391C28700022301CFFF74FFF687024E0D2B20027012A10D1031C6F331B78301C191C0193FFF741FF019B7034E8542378EF5490
:4059C00012E0012F10D00127FCB2301C211C0022FFF732FFE8550028F3D0301C211C0122FFF72AFFE855ECE7288805B0F0BDC04660E60000C64BF7B58200D358051C1C1CD9
:405A0000FC340193636B002B00D167E1636B9B050FD59A235B0043430020BE49CA182932FF325B5810710821281C984788239B00E3618023626B1A4208D0E361B4336B4384
:405A4000B44AD31801222933FF331A71636BDB006AD5E7693B0720D530233B40102B1CD12533FF336B43AB49CA182932FF321079012812D100208026107101983603D03054
:405A8000026832430260E06AA34A0240E262A34A281CE2615B5803219847FB0740D520233B403DD19A277F006F439A48C219111C2931FF310B71E16A8C46664698493140DE
:405AC000E16280218901E1610199A43109688906490F013911710199CC6D924921409160517A4906490FCCB25171117ACE068906F60EC90F9671D171A3420AD21A1C01991D
:405B00001832920051589A00D2198218D1600133F2E79A235B006B430621C358281C9847019B814AFC33DA618027019C3F01FC34636B3B4208D09A235B006B43754A281CE7
:405B40009B5807219847E7618027636BBF023B4208D09A235B006B436E4A281C9B5807219847E7618022636B920113420CD0E16A6B4B281C0B40E3629A235B006B43E26142
:405B8000644A01219B5898478027636B7F033B420AD0281C002100F057F9002803D1E26A624B1340E362E761636B5B0441D59A22002052006A4357498B182933FF33187103
:405BC000D87840B2002808DAE06A534B0340E3625358281C0221984728E0DB78002B1AD08023DB03E361052000F059FD8022019F1203F4373B68134205D08022E36AD20345
:405C00001343E36207E0052000F049FD80223B68120313433B609A235B006B433D4AD3182933FF33DA78013AD2B2DA708023DB01E3618027636BFF033B420ED0052000F071
:405C40002EFD8021019A0903F43213680B431360E26A374B1340E362E761C023626B5B021A420FD09A235B006B432A4A281C9B5800219847D02380225B02E361E36A9201D2
:405C80001343E362636BDB0512D59A2300205B006B432049CA182932FF3210715B58281C05219847E26A234B1340E362224BE361636B5B0312D59A2300205B006B43154920
:405CC000CA182932FF321071E06A1A4A0240E262194A281CE2615B5804219847019EFC36F36D002B13D08023F26D1A4200D033658023F26D5B001A4209D0104A3365AB00AC
:405D0000D3185B68002B02D0281C04219847F7BD60E6000064070020773FFEFF88C00100FFDFFFFFEF7FFFFF7F002010FFFFEFFFFFFFBFFFFFFEFBFF00010400A806002086
:405D4000802210B5084B8000C4585203F434236832201343236000F0A2FC80222368520213430020236010BD60E60000704700000B4A38B5145C23099B00D3185D680F236D
:405D80001C400E3BA3402A691C1C1A4206D0054B8200D358002B00D098472C6138BDC04648E60000B406002008B50120FFF7E0FF08BD08B50020FFF7DBFF08BD08B5002030
:405DC000FFF718FE08BD08B50120FFF713FE08BD08B5002000F068FE08BD08B5012000F063FE08BDF0B505AC40CC85002778134C9C462D599A2464006043114C079B2418EF
:405E0000201CFC30436163462934FF3423700D4B8800C0582B1CF833A7701860E02301201B01334001310343090419432B1CD2B2D0331960EE60E270F0BDC04660E600001D
:405E4000640700201CE60000F7B5204B8200D3581F4E9C46A0331A689A235B004343F3182933FF331B780196002B01D100202BE0002906D11F2308251340072B03D8291C90
:405E800001E0102500210A1C4B199A421BDA9A235B004343019C6646E3181C1C2934FF346778FC335B69BF00FF58131D9B009F5163780133DBB26370637824789C42D5D991
:405EC0000132D2B2E0E70120FEBDC04660E6000064070020F8B53B4B8200D7589A213C1CFC34E26A384B49001340E362374B4143E361374B9C465B182933FF33DA786546EE
:405F000052B2002A05DA8022636AD2011343636255E03A1CA432061C10682E4A02400DD0DA78301C013AD2B2DA708022E36A92011343E3624B590021984740E05A70301CC7
:405F40000121FFF781FF002804D08022E36A52031343E362E36A204A022113439A225200E362131C7343EB182933FF339B78012B02D17B680B4301E07B688B437B603B1CAE
:405F80007243AA182932F433FF321968D278002A03D0802212030A4301E0104A0A4080219A2089020A4300214000704328182930FF300171C1780139C9B2C1701A6001202B
:405FC000F8BDC04660E60000FFDFFFFF98E05100640700200100100088C00100FFFFF7FF0221034B8000C25853688B435360704760E60000174B820070B5D45807F028FE8C
:40600000251CE4352968144B021C1940822375321678DB010B430E3A6630002E04D11678012E07D1862303E00678012E02D18E23DB010B4341212B60F434236812781B0CED
:406040001B041943037812025B0113430B43236070BDC04660E60000FF00F8FF1C4B8200D3580922002930D02C32FF325043194A81501A1C0721A83211600A395160181C95
:406080000122B030524202604161826108300160191CBC310A601A1C0F49D83211600F21D1601E31FF3191620C49F033D162106D0B4901401165D16E0A4889B2D166D16EEC
:4060C0000143D166084A1A60002250B27047C04660E60000640700200F0210000A404101000408C002000F7E4100410037B50024E5B2281C07F0ACFD114AA300D358021C4B
:4061000090321278002A15D07021FC331A6B8A431A631962031C72331978C9B2012909D167300378002B05D100930193281C1A1CFFF7DEFA012C01D00124D9E7201C3EBD8A
:4061400060E60000084B820010B5D4580021FFF783FA231CFC33D96A044A00200A40DA62034ADA6110BDC04660E60000771EAAFF88E15500F0B5061C85B007F069FDA34BF6
:40618000B200D558031C90331B78002B00D139E1031C72331F782C1CFBB2021C2F1C0293FC346732A437012B4AD110212162236B0B4323631378012B14D1A269944B13404D
:4061C0008022A361A36992001343E13AFF3AA3612262236B134323633B689B0300D411E1A36A0DE139688B4BA2691340F022A361A369120113436022A3612262236B1A4368
:40620000C02322633A68DB021A400B409A4267D1301C07F05BFE041C301C07F06FFE0299031C221C301CFFF75DF8022200927A4A031C0192301C02990022FFF759FAE1E084
:40624000C62612787600754B012A00D0B0E0AA59943013401022AB51AB5971491343AB51AB59704A1340AB5102900378AA599B005B5C0A2059015B020B431343AB5100F0AF
:406280000EFA80213A68890203971140644831D18023DB021A422DD0E022AB599343AB51029BAA591B789B00C3185B780A205B011343AB51A369574A1340C022A361A36978
:4062C000D2001343A36100F0EAF9702360222362236B1343802223633B689202134202D0A36A20228CE080223B68D202134200D088E083E080262C1CC623F602FC345B007D
:4063000032422BD1002929D0E958474A0A40EA50029AE95812789200821852780A2052021143E950A3693B4A13409022A361A36912011343A36100F0B2F9702360222362C5
:40634000236B13432363039B1B689B03C8D5039B1A688023DB021A4254D04FE0EA5831490A40EA50029AE95812789200821852785001520202430A43EA50A369254A0A2055
:406380001340A022A361A369D2001343A36100F086F9702360222362236B13432363039B1B689B039CD5039B1B685B032AD425E0AA590A2013401022AB51AB591343AB5163
:4063C000AB59184A1340AB51AB59124AAB51A3691340A022A361A36912011343A36100F05EF9702360222362236B134323633B689B0300D574E73B685B0303D54022A36AEA
:406400001343A362012005B0F0BDC04660E60000FFFCFFFFFFF0FFFF6D5D0000FFFEFFFF38E600001FF1FFFFFFF1FFFFF7B5344B8700FC580193051C324A334B80210028EF
:406440000AD13248324EC901116006601960402130481160304A09E03048314E090211600660196080212F4811602F4A106080221960236812061343C62223605200A358F0
:4064800008215B005B08A350CA2301265B00E25864208A43E250E2583243E25000F0FFF807220320214963589343034363502049281C63589343053A1343FF2263500C21FA
:4064C0001202A3588B43A3509A235B006B43194A0021D318184AFE33DA821A83019BDC59C023164F5B00E75000F04AFBC4235B00281CE750311C00F043FB0020FEBDC04612
:4065000060E6000080E100E000E100E078000020BD5D0000D15D0000580000207C000020C75D0000DB5D00005C00002018FF00000CFF00006407002088130000000200807D
:40654000FEE7000048234343F7B52C4A0525D3181A1C0233DC7F00231E1CA5425E41403264005279F5B20194019C244EA3422BDA12245F08A446DC0707D464464443E71919
:406580000A37BF00F459240C06E064464443E4190A34A4003459A4B2022A14DC002C0ED00F1C0E1C083700973788A74208D0009F0236BE42F8D1124EB44201D114E00125D2
:4065C0000133DBB2D0E70125002453005C524823584336184036B37972710133DBB2B371092B08D9012506E0FF265400764201326652D2B2E4E7281CFEBDC046BC060020A7
:4066000001FF0000F023434307B5074AD318A8331B785B0706D5002300930193191C1A1CFFF766F807BDC04600150000024B18684006C00F7047C04604030440402304499C
:4066400080010A689A43D2B2034013430B60704700030440034A044B116880040B4018431060704708030440FFFFE3FF0423044980000A689A43D2B2034013430B607047AD
:406680000002044038B50124051C0078002805D000F0A6FB285D0134E4B2F7E738BD08B53023584300F080FB08BD0000034A044913689BB20B4313607047C0460CED00E0A4
:4066C0000400FA051F2318401E3B8340181C014B1860704700E100E0132800D901BE034B8000C318186819607047C04640000020F0B500254C4BCBB002950395984200D921
:406700008CE0A94200D189E08022019052000AA807F006FFFF22454B454C0893454E464B08AF7A6027603360C04623681B0F0F2B03D1236813401D1C04E023681B0F0A2B3B
:4067400000D025680295029D002D69D100F036FB3A4A3B4B04A910320493059221603949334B3160C0462168090F0F2902D11D68EDB204E01968090F0A2900D01D68039552
:40678000039B002B12D1304D294925602F4D3560C04625682D0F0F2D02D10B68DBB204E00D682D0F0A2D00D00B680293029B002B18D12749019D089108992D042943254D1E
:4067C000089127601A493560C04625682D0F0F2D02D10B68DBB204E00D682D0F0A2D00D00B680293039B002B15D11B4D06A906950792216019490E4A3160C0462168090F92
:406800000F2902D11368DBB204E01168090F0A2900D01368039300F0D5FA01E00423029302984BB0F0BDC046FF010000B6D700000800104004001040040000803C070020F8
:40684000B6E9000016000080B6E8000015000080B6D8000005000080B6EA000017000080F7B501215A4A1368171C8B43136000239A005849032B01D857498958574801334C
:406880008150242BF4D172B6FF21554A00251160FF21544A090211600321534A07261560524A534C1160534A1360534A534B1A605622534B1A60534A534B1A601022534B53
:4068C0001A60534B7D321A60524A534B1A608022524B1A60524B7F3A1A60DB22514B12011A600122504B1A60504B11321A6000F065FA01907F2023684D4AB34323604D4BB2
:406900004D491B78DBB213604C4A1368B34313604B4A0B6812788343024013430B604D3800F042FA052223683220B3431343236000F03AFA062223680198B3431343236096
:4069400000F040FA9E223F4BD2011A603E493F4B3F4819603F490A603F4A40491A60BC2292010A603E4919603E490A603E491960C021890001603D4818603D4801603D49C7
:4069800019603D490A60E8213C4A49011A603C4A116080213B4A49001A603B4A11603B4A1A6005223A4B1D603A4B1A603A4B023A1A603A4B3A4A1D6011683A4B1D600123BE
:4069C000A94200D111603A6813433B60F7BDC0460000104041650000001400000000002000000240000302400001024000000440080F0340080004400510000008010440DD
:406A00000002044086011B00080204401802044000030440288904000803044018030440000404400804044018040440300010400C0F03407DF3FF0F180F0340100F0340F8
:406A400064F3FF0F0803014042FF008000000140080201400403014041FF00800003014040FF00801002014004FF008002FF00800402014001FF00801402014005FF008014
:406A80000C02014003FF00800002014000FF008028000340100101400C010140000101409000002098000020F8B5314B8200D7583C1CFC34A36B002B59D08022A36B5200C8
:406AC000051C0126134214D0216B2A4B0B402363C02322625B00FB58274ADB0B9E439A235B004343D318FC339B6C002B01D0311C98478022A36B920013421AD0216B1F4B98
:406B00000B402363C42322625B00FA5880231B0213405A4253415B421E409A235B006B43154AD318FC33DB6C002B02D0281C311C98471023A26B1A4203D0226B9A432263DD
:406B400023622023A26B1A4203D0226B9A43226323624023A26B1A4203D0226B9A43226323628023A26BDB001A4200D02362F8BD60E60000FFFEFFFF3C070020FFFDFFFFFB
:406B80000023F0B589B00793394B8200D458039004910B1C261C00290CD11833251C0293C023802781367D359B04FF36FF3501937F000BE01B23251C0293C02380278936FA
:406BC00085355B05FF36FF350193BF0000F0F6F80122336805900093264B33602B6813432B602B68DB0706D5079BC72B03D8079B01330793F5E70220FFF751FD009B2D68E2
:406C00000A203360FFF74BFD231CFC331F621A6B2D022D0E3A4210D0009A002A0DDB9B69019A1340029AD340326812041BD5022B03D1FC34A36A1F43A762059800F0C2F842
:406C4000002D13D09620291CC00207F0C1FA9A23039A80B25343049A9B188833064A5B00D318988502E0012BE7D1E2E709B0F0BD60E60000000204003C070020F7B5002440
:406C80002F4F0A222F4B061C0D1C201CC1213C74FDF7CEF82C492D4A0B682D489C463B1C67460191F90722D42A4C760026602A4E16600226066008261768FF36374201D081
:406CC000AF1C0BE01F7C002FF5D0F9E7BD420DD0297821601168314204D00135197C0029F4D003E0197C0029F4D0F6E7012401990D681821AD0600D4083901601221106876
:406D0000FF31084202D1197C0029F7D011680422FF32114202D11B7C002B0AD0802100240E4A090613685B005B08136013680B4313600020C121FCF7B3FD201CFEBDC04639
:406D4000BC090020BD33000064000840000F08406800084040020840170300000000084070B50F490F4B01394A1C15D000221E685C689D68A018AA4203D0B058A05004322D
:406D8000F8E7021CDC68151AA54202D0002520C2F9E710330139E7E707F09CFBFBF7FAFD010000008CED00000230800804D0C0460138FDD1C046C046C0467047EFF31080B1
:406DC00072B6704780F310887047C046C046C04600000000000000000000000000000000FEB5494652465B460EB407462E4909688A462E4A12682E48022107F0E9F9030037
:406E00002A480068C0182A4907F0E2F906001F3EB346234A126801219140C9430C0001250026FFF7CBFF814651460B6823400B6058460430FFF7B8FF3800F0402840904043
:406E40000B68234003430B605846FFF7ADFF0136072EF1D900200130012090400B68234003430B6058460630FFF79EFF4846FFF7A9FFC046C046C0460EBC894692469B4655
:406E8000FEBDC046C046C046C046C046C046C046C046C046C046C046C046C046C046C046B4000020B0000020AC000020A800002000C20100C046C046C046C046C046C0469E
:406EC00070B5061CFFF77AFF0C2373431E4C051CE218D18889B200291ED0002E07D01959CB7889781B020B4304339BB208E01B591978231CA2331970231CA3331E700423C9
:406F000013810123B3401E1C0B34E37F00201E43E677FFF7ABFB13E0002E04D09288185907F007FB05E0231CA2331E70231CA3331E700123B3401E1C0B34E37FB343E3776C
:406F4000281CFFF73FFF70BDD0090020F7B5002501260190EBB20093019B33421ED0FFF72DFF0C236B43174A071CD418218900290ED098582189E28823894118D21A07F0AF
:406F8000CFFA2289E3889B1A9BB2E38000232381381CFFF717FF0098FFF792FF76000135F6B2032DD6D1FFF709FF064B041C0B33DB7F002B02D00020FFF758FB201CFFF77D
:406FC00001FFF7BDD0090020F7B52C221F4D42432B1C1F4F243301919A18395C1D4B041C06F0AAFF061E0E2E29D00F280AD0002801D00D2024E0201C80217C35FCF750FC8C
:407000002E5520E0019B002B12D038236343124AD318D533FF331A78002A09D0002392B2201C8021FCF704FF01237C352B550AE0201C8021FCF710FC0028DAD003E01220D1
:40704000FF233B5500E00020FEBDC046D00D0020C000002065790000D009002070B5051C002006F00BFD031CAC331B68002B02D1012006F003FDAC3006680524002E11D16C
:407080000120FFF7F3FA084B311C7E33187801F009FB201CFFF703FB72B6044B341C1D60FFF704FB201C70BDD00D002090000020C34BF0B51F1C85B07F37111C01257A7859
:4070C0000093042800D1A1E10D1C061E032E0AD190220021BB4B381C52001962596207F028FA012592E1012800D059E10F2413091440022900D9F6E00020B24984460862BF
:407100004862081C012D18D0634526D1022C10D1AD4A387852881D1C904200D376E1AB4B80302433883218189B1808624B62351C6CE11D1C002C00D068E10025009B7F33C8
:407140001A7853B2AB4200DA60E1A04B191C24318A18AC3302624362C3E76546022B00D954E1211F012915D828218C46591E0D0109026918151C3F78354084442D02614465
:40718000ED19491901621D02190149196144B44608314162211C0839012919D8591ECD00090269180125864E884C7F36F1312A4036782434FF311202611892198918DA008D
:4071C0001B02D318F933FF33E418016244621DE16546002C00D019E1794A111C7F31097801925F2900D911E1013B00936B461F78261C381C06F042FC031C72331B78051C25
:40720000002B22D0031C67331B78002B08D1031C68331C78E4B2002C05D0013CE4B202E0031C94331C782B1C2A1C78331E787432093B1B7812785B0092001A430123760113
